{
  "transactions": [
    {
      "hash": "0xd00bf663381549ef57c7c9c2891ac903cf2ff701d7c43ce91acb880a40abf507",
      "transactionType": "CALL",
      "contractName": null,
      "contractAddress": "0x5ef3ccf9ec7e0af61e1767b2eebb50e052b5df47",
      "function": "createAgreementAnchor(bytes32,address)",
      "arguments": [
        "0xe8c79f54b28f0f008fc23ae671265b2c915d0c4328733162967f85578ea36748",
        "0x0000000000000000000000000000000000000000"
      ],
      "transaction": {
        "from": "0xc7d5060db43a43ef5847f3004803cfc8ef61c00b",
        "to": "0x5ef3ccf9ec7e0af61e1767b2eebb50e052b5df47",
        "gas": "0x66bc6",
        "value": "0x0",
        "input": "0x501d49bae8c79f54b28f0f008fc23ae671265b2c915d0c4328733162967f85578ea367480000000000000000000000000000000000000000000000000000000000000000",
        "nonce": "0x8",
        "chainId": "0x1"
      },
      "additionalContracts": [
        {
          "transactionType": "CREATE",
          "address": "0xe4b69d68341abbdd08023cd39bae9a0d5360b6c1",
          "initCode": "0x610100604052348015610010575f5ffd5b5060405161050b38038061050b83398101604081905261002f9161006c565b6080939093526001600160a01b0391821660a052811660c0521660e0526100b6565b80516001600160a01b0381168114610067575f5ffd5b919050565b5f5f5f5f6080858703121561007f575f5ffd5b8451935061008f60208601610051565b925061009d60408601610051565b91506100ab60608601610051565b905092959194509250565b60805160a05160c05160e05161040f6100fc5f395f8181610127015261019001525f818161014e01526102d401525f81816083015261024301525f60eb015261040f5ff3fe608060405234801561000f575f5ffd5b506004361061007a575f3560e01c80634bfd07de116100585780634bfd07de1461010d5780634d77532d146101225780635c0ac38614610149578063d226e5aa14610170575f5ffd5b806316b8e5db1461007e57806326879a68146100cf578063346880f0146100e6575b5f5ffd5b6100a57f000000000000000000000000000000000000000000000000000000000000000081565b60405173ffffffffffffffffffffffffffffffffffffffff90911681526020015b60405180910390f35b6100d860015481565b6040519081526020016100c6565b6100d87f000000000000000000000000000000000000000000000000000000000000000081565b61012061011b366004610397565b610178565b005b6100a57f000000000000000000000000000000000000000000000000000000000000000081565b6100a57f000000000000000000000000000000000000000000000000000000000000000081565b6100d85f5481565b3373ffffffffffffffffffffffffffffffffffffffff7f00000000000000000000000000000000000000000000000000000000000000001614610241576040517f08c379a000000000000000000000000000000000000000000000000000000000815260206004820152602660248201527f4f6e6c792074686520454153207265736f6c7665722063616e2075706461746560448201527f2073746174650000000000000000000000000000000000000000000000000000606482015260840160405180910390fd5b7f000000000000000000000000000000000000000000000000000000000000000073ffffffffffffffffffffffffffffffffffffffff168273ffffffffffffffffffffffffffffffffffffffff16036102d2575f54156102cd576040517f55dd2a0800000000000000000000000000000000000000000000000000000000815260040160405180910390fd5b5f5550565b7f000000000000000000000000000000000000000000000000000000000000000073ffffffffffffffffffffffffffffffffffffffff168273ffffffffffffffffffffffffffffffffffffffff1603610365576001541561035f576040517f55dd2a0800000000000000000000000000000000000000000000000000000000815260040160405180910390fd5b60015550565b6040517f43e28d7300000000000000000000000000000000000000000000000000000000815260040160405180910390fd5b5f5f604083850312156103a8575f5ffd5b823573ffffffffffffffffffffffffffffffffffffffff811681146103cb575f5ffd5b94602093909301359350505056fea264697066735822122059b976700682920297f5147f39e4569f56a80ebb9efc83fbfc2a7f1c4a576b0c64736f6c634300081e0033e8c79f54b28f0f008fc23ae671265b2c915d0c4328733162967f85578ea367480000000000000000000000001a9c8182c09f50c8318d769245bea52c32be35bc000000000000000000000000000000000000000000000000000000000000000000000000000000000000000033122f7b8f1bb7a9fd620fcd30dfa68326dbeeb6"
        }
      ],
      "isFixedGasLimit": false
    },
    {
      "hash": "0xa1655c024ecd927a73bc13b10414a5f2e1b6be08ed4d2d123ec51040522affe2",
      "transactionType": "CALL",
      "contractName": null,
      "contractAddress": "0x5ef3ccf9ec7e0af61e1767b2eebb50e052b5df47",
      "function": "createAgreementAnchor(bytes32,address)",
      "arguments": [
        "0x1e9a075250e3bb62dec90c499ff00a8def24f4e9be7984daf11936d57dca2f76",
        "0x96855185279B526D7ad7e4A21B3f8d4f8Ca859da"
      ],
      "transaction": {
        "from": "0xc7d5060db43a43ef5847f3004803cfc8ef61c00b",
        "to": "0x5ef3ccf9ec7e0af61e1767b2eebb50e052b5df47",
        "gas": "0x611cf",
        "value": "0x0",
        "input": "0x501d49ba1e9a075250e3bb62dec90c499ff00a8def24f4e9be7984daf11936d57dca2f7600000000000000000000000096855185279b526d7ad7e4a21b3f8d4f8ca859da",
        "nonce": "0x9",
        "chainId": "0x1"
      },
      "additionalContracts": [
        {
          "transactionType": "CREATE",
          "address": "0x22005982ae6bd2e90167f34a4604ffd59afa7e9d",
          "initCode": "0x610100604052348015610010575f5ffd5b5060405161050b38038061050b83398101604081905261002f9161006c565b6080939093526001600160a01b0391821660a052811660c0521660e0526100b6565b80516001600160a01b0381168114610067575f5ffd5b919050565b5f5f5f5f6080858703121561007f575f5ffd5b8451935061008f60208601610051565b925061009d60408601610051565b91506100ab60608601610051565b905092959194509250565b60805160a05160c05160e05161040f6100fc5f395f8181610127015261019001525f818161014e01526102d401525f81816083015261024301525f60eb015261040f5ff3fe608060405234801561000f575f5ffd5b506004361061007a575f3560e01c80634bfd07de116100585780634bfd07de1461010d5780634d77532d146101225780635c0ac38614610149578063d226e5aa14610170575f5ffd5b806316b8e5db1461007e57806326879a68146100cf578063346880f0146100e6575b5f5ffd5b6100a57f000000000000000000000000000000000000000000000000000000000000000081565b60405173ffffffffffffffffffffffffffffffffffffffff90911681526020015b60405180910390f35b6100d860015481565b6040519081526020016100c6565b6100d87f000000000000000000000000000000000000000000000000000000000000000081565b61012061011b366004610397565b610178565b005b6100a57f000000000000000000000000000000000000000000000000000000000000000081565b6100a57f000000000000000000000000000000000000000000000000000000000000000081565b6100d85f5481565b3373ffffffffffffffffffffffffffffffffffffffff7f00000000000000000000000000000000000000000000000000000000000000001614610241576040517f08c379a000000000000000000000000000000000000000000000000000000000815260206004820152602660248201527f4f6e6c792074686520454153207265736f6c7665722063616e2075706461746560448201527f2073746174650000000000000000000000000000000000000000000000000000606482015260840160405180910390fd5b7f000000000000000000000000000000000000000000000000000000000000000073ffffffffffffffffffffffffffffffffffffffff168273ffffffffffffffffffffffffffffffffffffffff16036102d2575f54156102cd576040517f55dd2a0800000000000000000000000000000000000000000000000000000000815260040160405180910390fd5b5f5550565b7f000000000000000000000000000000000000000000000000000000000000000073ffffffffffffffffffffffffffffffffffffffff168273ffffffffffffffffffffffffffffffffffffffff1603610365576001541561035f576040517f55dd2a0800000000000000000000000000000000000000000000000000000000815260040160405180910390fd5b60015550565b6040517f43e28d7300000000000000000000000000000000000000000000000000000000815260040160405180910390fd5b5f5f604083850312156103a8575f5ffd5b823573ffffffffffffffffffffffffffffffffffffffff811681146103cb575f5ffd5b94602093909301359350505056fea264697066735822122059b976700682920297f5147f39e4569f56a80ebb9efc83fbfc2a7f1c4a576b0c64736f6c634300081e00331e9a075250e3bb62dec90c499ff00a8def24f4e9be7984daf11936d57dca2f760000000000000000000000001a9c8182c09f50c8318d769245bea52c32be35bc00000000000000000000000096855185279b526d7ad7e4a21b3f8d4f8ca859da00000000000000000000000033122f7b8f1bb7a9fd620fcd30dfa68326dbeeb6"
        }
      ],
      "isFixedGasLimit": false
    },
    {
      "hash": "0xe6e1f09d38d08b61b2ecb8e85b9e7214f72b1c17e1614b8b42ac9096ee4cda82",
      "transactionType": "CALL",
      "contractName": null,
      "contractAddress": "0x5ef3ccf9ec7e0af61e1767b2eebb50e052b5df47",
      "function": "createAgreementAnchor(bytes32,address)",
      "arguments": [
        "0xa2fd33dd87091d25c15d94c0097395c08f2689efe6a2f8c53a1194222e442dd5",
        "0xe571dC7A558bb6D68FfE264c3d7BB98B0C6C73fC"
      ],
      "transaction": {
        "from": "0xc7d5060db43a43ef5847f3004803cfc8ef61c00b",
        "to": "0x5ef3ccf9ec7e0af61e1767b2eebb50e052b5df47",
        "gas": "0x611cf",
        "value": "0x0",
        "input": "0x501d49baa2fd33dd87091d25c15d94c0097395c08f2689efe6a2f8c53a1194222e442dd5000000000000000000000000e571dc7a558bb6d68ffe264c3d7bb98b0c6c73fc",
        "nonce": "0xa",
        "chainId": "0x1"
      },
      "additionalContracts": [
        {
          "transactionType": "CREATE",
          "address": "0x64aca2ce7e855a3c64e1da32d927ed07bac40718",
          "initCode": "0x610100604052348015610010575f5ffd5b5060405161050b38038061050b83398101604081905261002f9161006c565b6080939093526001600160a01b0391821660a052811660c0521660e0526100b6565b80516001600160a01b0381168114610067575f5ffd5b919050565b5f5f5f5f6080858703121561007f575f5ffd5b8451935061008f60208601610051565b925061009d60408601610051565b91506100ab60608601610051565b905092959194509250565b60805160a05160c05160e05161040f6100fc5f395f8181610127015261019001525f818161014e01526102d401525f81816083015261024301525f60eb015261040f5ff3fe608060405234801561000f575f5ffd5b506004361061007a575f3560e01c80634bfd07de116100585780634bfd07de1461010d5780634d77532d146101225780635c0ac38614610149578063d226e5aa14610170575f5ffd5b806316b8e5db1461007e57806326879a68146100cf578063346880f0146100e6575b5f5ffd5b6100a57f000000000000000000000000000000000000000000000000000000000000000081565b60405173ffffffffffffffffffffffffffffffffffffffff90911681526020015b60405180910390f35b6100d860015481565b6040519081526020016100c6565b6100d87f000000000000000000000000000000000000000000000000000000000000000081565b61012061011b366004610397565b610178565b005b6100a57f000000000000000000000000000000000000000000000000000000000000000081565b6100a57f000000000000000000000000000000000000000000000000000000000000000081565b6100d85f5481565b3373ffffffffffffffffffffffffffffffffffffffff7f00000000000000000000000000000000000000000000000000000000000000001614610241576040517f08c379a000000000000000000000000000000000000000000000000000000000815260206004820152602660248201527f4f6e6c792074686520454153207265736f6c7665722063616e2075706461746560448201527f2073746174650000000000000000000000000000000000000000000000000000606482015260840160405180910390fd5b7f000000000000000000000000000000000000000000000000000000000000000073ffffffffffffffffffffffffffffffffffffffff168273ffffffffffffffffffffffffffffffffffffffff16036102d2575f54156102cd576040517f55dd2a0800000000000000000000000000000000000000000000000000000000815260040160405180910390fd5b5f5550565b7f000000000000000000000000000000000000000000000000000000000000000073ffffffffffffffffffffffffffffffffffffffff168273ffffffffffffffffffffffffffffffffffffffff1603610365576001541561035f576040517f55dd2a0800000000000000000000000000000000000000000000000000000000815260040160405180910390fd5b60015550565b6040517f43e28d7300000000000000000000000000000000000000000000000000000000815260040160405180910390fd5b5f5f604083850312156103a8575f5ffd5b823573ffffffffffffffffffffffffffffffffffffffff811681146103cb575f5ffd5b94602093909301359350505056fea264697066735822122059b976700682920297f5147f39e4569f56a80ebb9efc83fbfc2a7f1c4a576b0c64736f6c634300081e0033a2fd33dd87091d25c15d94c0097395c08f2689efe6a2f8c53a1194222e442dd50000000000000000000000001a9c8182c09f50c8318d769245bea52c32be35bc000000000000000000000000e571dc7a558bb6d68ffe264c3d7bb98b0c6c73fc00000000000000000000000033122f7b8f1bb7a9fd620fcd30dfa68326dbeeb6"
        }
      ],
      "isFixedGasLimit": false
    }
  ],
  "receipts": [
    {
      "status": "0x1",
      "cumulativeGasUsed": "0x22895a1",
      "logs": [
        {
          "address": "0x5ef3ccf9ec7e0af61e1767b2eebb50e052b5df47",
          "topics": [
            "0xd76bb5b52d1037f2375310314e27b77555b0f9749f376c632c13a053ed93b21e",
            "0x000000000000000000000000e4b69d68341abbdd08023cd39bae9a0d5360b6c1",
            "0xe8c79f54b28f0f008fc23ae671265b2c915d0c4328733162967f85578ea36748",
            "0x0000000000000000000000000000000000000000000000000000000000000000"
          ],
          "data": "0x0000000000000000000000001a9c8182c09f50c8318d769245bea52c32be35bc",
          "blockHash": "0x39c5b9e6b72781d625b234d54d76d85f3e5a181373b58fbab35b543e08c2ec92",
          "blockNumber": "0x162a48a",
          "blockTimestamp": "0x68b0b587",
          "transactionHash": "0xd00bf663381549ef57c7c9c2891ac903cf2ff701d7c43ce91acb880a40abf507",
          "transactionIndex": "0x152",
          "logIndex": "0x6fc",
          "removed": false
        }
      ],
      "logsBloom": "0x00000000000000000000800000000000000000000000000000000000000000000000000000000000000001000080000000000000000000000000000000000000000000000000008000000000000000000000100020000000000400000000000000000200020000000000000000000800000000000000000000000000000000000000000000000000000000000000000000000000000000000000000000000000000000000000000000000000000000000000000000000000000010000000000000000000000000000000000000000000000000000400000000000000000060000000000000000000000000000000000000080000000000000000000000000000",
      "type": "0x2",
      "transactionHash": "0xd00bf663381549ef57c7c9c2891ac903cf2ff701d7c43ce91acb880a40abf507",
      "transactionIndex": "0x152",
      "blockHash": "0x39c5b9e6b72781d625b234d54d76d85f3e5a181373b58fbab35b543e08c2ec92",
      "blockNumber": "0x162a48a",
      "gasUsed": "0x463f3",
      "effectiveGasPrice": "0x14aec677",
      "from": "0xc7d5060db43a43ef5847f3004803cfc8ef61c00b",
      "to": "0x5ef3ccf9ec7e0af61e1767b2eebb50e052b5df47",
      "contractAddress": null
    },
    {
      "status": "0x1",
      "cumulativeGasUsed": "0x1548147",
      "logs": [
        {
          "address": "0x5ef3ccf9ec7e0af61e1767b2eebb50e052b5df47",
          "topics": [
            "0xd76bb5b52d1037f2375310314e27b77555b0f9749f376c632c13a053ed93b21e",
            "0x00000000000000000000000022005982ae6bd2e90167f34a4604ffd59afa7e9d",
            "0x1e9a075250e3bb62dec90c499ff00a8def24f4e9be7984daf11936d57dca2f76",
            "0x00000000000000000000000096855185279b526d7ad7e4a21b3f8d4f8ca859da"
          ],
          "data": "0x0000000000000000000000001a9c8182c09f50c8318d769245bea52c32be35bc",
          "blockHash": "0xea188efacb47e5082e94c65ac3d2f863d30f6e6e8a96bf7cf8330252483ebde0",
          "blockNumber": "0x162a48e",
          "blockTimestamp": "0x68b0b5b7",
          "transactionHash": "0xa1655c024ecd927a73bc13b10414a5f2e1b6be08ed4d2d123ec51040522affe2",
          "transactionIndex": "0x9f",
          "logIndex": "0x552",
          "removed": false
        }
      ],
      "logsBloom": "0x00000000000000000000800000000000000000000000000000000000000000000000000000000000000000000000000000000000000000000000000000000010000000000000000000000000000000000080000020000000000400000000000000004000000000000000000000000000000000000000000000000000000000000000000000000000000000000000000000000400000000000000000000000010000000000000000000000000000000000000000000000000000010000000000010000000000000000000000000000000000000000400000000002000000000000000000000000000000000000000000000080000000000012000000000000000",
      "type": "0x2",
      "transactionHash": "0xa1655c024ecd927a73bc13b10414a5f2e1b6be08ed4d2d123ec51040522affe2",
      "transactionIndex": "0x9f",
      "blockHash": "0xea188efacb47e5082e94c65ac3d2f863d30f6e6e8a96bf7cf8330252483ebde0",
      "blockNumber": "0x162a48e",
      "gasUsed": "0x464ef",
      "effectiveGasPrice": "0x167901bd",
      "from": "0xc7d5060db43a43ef5847f3004803cfc8ef61c00b",
      "to": "0x5ef3ccf9ec7e0af61e1767b2eebb50e052b5df47",
      "contractAddress": null
    },
    {
      "status": "0x1",
      "cumulativeGasUsed": "0x158e636",
      "logs": [
        {
          "address": "0x5ef3ccf9ec7e0af61e1767b2eebb50e052b5df47",
          "topics": [
            "0xd76bb5b52d1037f2375310314e27b77555b0f9749f376c632c13a053ed93b21e",
            "0x00000000000000000000000064aca2ce7e855a3c64e1da32d927ed07bac40718",
            "0xa2fd33dd87091d25c15d94c0097395c08f2689efe6a2f8c53a1194222e442dd5",
            "0x000000000000000000000000e571dc7a558bb6d68ffe264c3d7bb98b0c6c73fc"
          ],
          "data": "0x0000000000000000000000001a9c8182c09f50c8318d769245bea52c32be35bc",
          "blockHash": "0xea188efacb47e5082e94c65ac3d2f863d30f6e6e8a96bf7cf8330252483ebde0",
          "blockNumber": "0x162a48e",
          "blockTimestamp": "0x68b0b5b7",
          "transactionHash": "0xe6e1f09d38d08b61b2ecb8e85b9e7214f72b1c17e1614b8b42ac9096ee4cda82",
          "transactionIndex": "0xa0",
          "logIndex": "0x553",
          "removed": false
        }
      ],
      "logsBloom": "0x00000000000000000000800000000000000000000000000000000000000000000000000000000000000000000000000000000000000000000000000000000000000000000000000004008000000000000000004020000000000400000000000000000000000000002000000000000000080000000000000000000000000000000000000000000000000000000000000000000000000000000100000000000000000000000000000000000000000000000000000000000000000010040000000000000000000000000000000002000000000000000c00000000000000000000000000000000000000000000000000000000080000000000000000000000000000",
      "type": "0x2",
      "transactionHash": "0xe6e1f09d38d08b61b2ecb8e85b9e7214f72b1c17e1614b8b42ac9096ee4cda82",
      "transactionIndex": "0xa0",
      "blockHash": "0xea188efacb47e5082e94c65ac3d2f863d30f6e6e8a96bf7cf8330252483ebde0",
      "blockNumber": "0x162a48e",
      "gasUsed": "0x464ef",
      "effectiveGasPrice": "0x167901bd",
      "from": "0xc7d5060db43a43ef5847f3004803cfc8ef61c00b",
      "to": "0x5ef3ccf9ec7e0af61e1767b2eebb50e052b5df47",
      "contractAddress": null
    }
  ],
  "libraries": [],
  "pending": [],
  "returns": {
    "agreementAnchors": {
      "internal_type": "address[]",
      "value": "[0xe4b69D68341abBdd08023cD39bAe9a0D5360B6c1, 0x22005982Ae6BD2E90167F34a4604FfD59AFa7E9d, 0x64aCa2CE7e855a3C64E1Da32D927eD07bAC40718]"
    }
  },
  "timestamp": 1756411370,
  "chain": 1,
  "commit": "c03f4b0"
}