{
  "transactions": [
    {
      "hash": "0xeb6048a5cd9d69473573ddd4b8e87b684aeb0052ec47bf5b18b8a596610b0f1f",
      "transactionType": "CALL",
      "contractName": null,
      "contractAddress": "0x5ef3ccf9ec7e0af61e1767b2eebb50e052b5df47",
      "function": "createAgreementAnchor(bytes32,address)",
      "arguments": [
        "0x6dd5ee280fe12c69425c9d4b137d8f64578f5e67b76904e994687644f7511516",
        "0xe571dC7A558bb6D68FfE264c3d7BB98B0C6C73fC"
      ],
      "transaction": {
        "from": "0xc7d5060db43a43ef5847f3004803cfc8ef61c00b",
        "to": "0x5ef3ccf9ec7e0af61e1767b2eebb50e052b5df47",
        "gas": "0x611cf",
        "value": "0x0",
        "input": "0x501d49ba6dd5ee280fe12c69425c9d4b137d8f64578f5e67b76904e994687644f7511516000000000000000000000000e571dc7a558bb6d68ffe264c3d7bb98b0c6c73fc",
        "nonce": "0xb",
        "chainId": "0x1"
      },
      "additionalContracts": [
        {
          "transactionType": "CREATE",
          "address": "0x5267b6c862d3e8826717eba42936e310425c02fa",
          "initCode": "0x610100604052348015610010575f5ffd5b5060405161050b38038061050b83398101604081905261002f9161006c565b6080939093526001600160a01b0391821660a052811660c0521660e0526100b6565b80516001600160a01b0381168114610067575f5ffd5b919050565b5f5f5f5f6080858703121561007f575f5ffd5b8451935061008f60208601610051565b925061009d60408601610051565b91506100ab60608601610051565b905092959194509250565b60805160a05160c05160e05161040f6100fc5f395f8181610127015261019001525f818161014e01526102d401525f81816083015261024301525f60eb015261040f5ff3fe608060405234801561000f575f5ffd5b506004361061007a575f3560e01c80634bfd07de116100585780634bfd07de1461010d5780634d77532d146101225780635c0ac38614610149578063d226e5aa14610170575f5ffd5b806316b8e5db1461007e57806326879a68146100cf578063346880f0146100e6575b5f5ffd5b6100a57f000000000000000000000000000000000000000000000000000000000000000081565b60405173ffffffffffffffffffffffffffffffffffffffff90911681526020015b60405180910390f35b6100d860015481565b6040519081526020016100c6565b6100d87f000000000000000000000000000000000000000000000000000000000000000081565b61012061011b366004610397565b610178565b005b6100a57f000000000000000000000000000000000000000000000000000000000000000081565b6100a57f000000000000000000000000000000000000000000000000000000000000000081565b6100d85f5481565b3373ffffffffffffffffffffffffffffffffffffffff7f00000000000000000000000000000000000000000000000000000000000000001614610241576040517f08c379a000000000000000000000000000000000000000000000000000000000815260206004820152602660248201527f4f6e6c792074686520454153207265736f6c7665722063616e2075706461746560448201527f2073746174650000000000000000000000000000000000000000000000000000606482015260840160405180910390fd5b7f000000000000000000000000000000000000000000000000000000000000000073ffffffffffffffffffffffffffffffffffffffff168273ffffffffffffffffffffffffffffffffffffffff16036102d2575f54156102cd576040517f55dd2a0800000000000000000000000000000000000000000000000000000000815260040160405180910390fd5b5f5550565b7f000000000000000000000000000000000000000000000000000000000000000073ffffffffffffffffffffffffffffffffffffffff168273ffffffffffffffffffffffffffffffffffffffff1603610365576001541561035f576040517f55dd2a0800000000000000000000000000000000000000000000000000000000815260040160405180910390fd5b60015550565b6040517f43e28d7300000000000000000000000000000000000000000000000000000000815260040160405180910390fd5b5f5f604083850312156103a8575f5ffd5b823573ffffffffffffffffffffffffffffffffffffffff811681146103cb575f5ffd5b94602093909301359350505056fea264697066735822122059b976700682920297f5147f39e4569f56a80ebb9efc83fbfc2a7f1c4a576b0c64736f6c634300081e00336dd5ee280fe12c69425c9d4b137d8f64578f5e67b76904e994687644f75115160000000000000000000000001a9c8182c09f50c8318d769245bea52c32be35bc000000000000000000000000e571dc7a558bb6d68ffe264c3d7bb98b0c6c73fc00000000000000000000000033122f7b8f1bb7a9fd620fcd30dfa68326dbeeb6"
        }
      ],
      "isFixedGasLimit": false
    }
  ],
  "receipts": [
    {
      "status": "0x1",
      "cumulativeGasUsed": "0x141c922",
      "logs": [
        {
          "address": "0x5ef3ccf9ec7e0af61e1767b2eebb50e052b5df47",
          "topics": [
            "0xd76bb5b52d1037f2375310314e27b77555b0f9749f376c632c13a053ed93b21e",
            "0x0000000000000000000000005267b6c862d3e8826717eba42936e310425c02fa",
            "0x6dd5ee280fe12c69425c9d4b137d8f64578f5e67b76904e994687644f7511516",
            "0x000000000000000000000000e571dc7a558bb6d68ffe264c3d7bb98b0c6c73fc"
          ],
          "data": "0x0000000000000000000000001a9c8182c09f50c8318d769245bea52c32be35bc",
          "blockHash": "0xf5e45cece43abb933ac12af0b049c5e6f7df8e217873e415d31ced110e8332cb",
          "blockNumber": "0x162be89",
          "blockTimestamp": "0x68b1eeb3",
          "transactionHash": "0xeb6048a5cd9d69473573ddd4b8e87b684aeb0052ec47bf5b18b8a596610b0f1f",
          "transactionIndex": "0xd9",
          "logIndex": "0x22a",
          "removed": false
        }
      ],
      "logsBloom": "0x00000000000000000000800000000000000000000000000000000000000000000000000000000000000000000000000000000000000000000000000000000000000000000000000000008000000000000000000020000000000400000000000000000000000000000000000000000002000000000000000000000000000000000400000000000000000200000000000000000000000000000100080000000000000000000000000400000000000000000000010000000000000010000000000000000000000000000000000000000000000000000c00000000000000000000000000000000000000000000000000000000080000000000000000000000000000",
      "type": "0x2",
      "transactionHash": "0xeb6048a5cd9d69473573ddd4b8e87b684aeb0052ec47bf5b18b8a596610b0f1f",
      "transactionIndex": "0xd9",
      "blockHash": "0xf5e45cece43abb933ac12af0b049c5e6f7df8e217873e415d31ced110e8332cb",
      "blockNumber": "0x162be89",
      "gasUsed": "0x464ef",
      "effectiveGasPrice": "0x15cd9833",
      "from": "0xc7d5060db43a43ef5847f3004803cfc8ef61c00b",
      "to": "0x5ef3ccf9ec7e0af61e1767b2eebb50e052b5df47",
      "contractAddress": null
    }
  ],
  "libraries": [],
  "pending": [],
  "returns": {
    "agreementAnchors": {
      "internal_type": "address[]",
      "value": "[0x5267b6C862D3e8826717Eba42936e310425C02FA]"
    }
  },
  "timestamp": 1756492007,
  "chain": 1,
  "commit": "618824a"
}